{
  "_format": "hh-sol-artifact-1",
  "contractName": "Collection",
  "sourceName": "contracts/Collection.sol",
  "abi": [
    {
      "inputs": [
        {
          "internalType": "address",
          "name": "_token",
          "type": "address"
        }
      ],
      "stateMutability": "nonpayable",
      "type": "constructor"
    },
    {
      "anonymous": false,
      "inputs": [
        {
          "indexed": false,
          "internalType": "address",
          "name": "",
          "type": "address"
        },
        {
          "indexed": false,
          "internalType": "uint256",
          "name": "",
          "type": "uint256"
        }
      ],
      "name": "Claim",
      "type": "event"
    },
    {
      "anonymous": false,
      "inputs": [
        {
          "indexed": false,
          "internalType": "address[]",
          "name": "",
          "type": "address[]"
        },
        {
          "indexed": false,
          "internalType": "uint256[]",
          "name": "",
          "type": "uint256[]"
        }
      ],
      "name": "Distribution",
      "type": "event"
    },
    {
      "anonymous": false,
      "inputs": [
        {
          "indexed": true,
          "internalType": "address",
          "name": "previousOwner",
          "type": "address"
        },
        {
          "indexed": true,
          "internalType": "address",
          "name": "newOwner",
          "type": "address"
        }
      ],
      "name": "OwnershipTransferred",
      "type": "event"
    },
    {
      "anonymous": false,
      "inputs": [
        {
          "indexed": false,
          "internalType": "address",
          "name": "",
          "type": "address"
        },
        {
          "indexed": false,
          "internalType": "uint256",
          "name": "",
          "type": "uint256"
        }
      ],
      "name": "Withdraw",
      "type": "event"
    },
    {
      "inputs": [
        {
          "internalType": "address",
          "name": "",
          "type": "address"
        }
      ],
      "name": "balanceOf",
      "outputs": [
        {
          "internalType": "uint256",
          "name": "",
          "type": "uint256"
        }
      ],
      "stateMutability": "view",
      "type": "function"
    },
    {
      "inputs": [],
      "name": "claim",
      "outputs": [
        {
          "internalType": "uint256",
          "name": "",
          "type": "uint256"
        }
      ],
      "stateMutability": "nonpayable",
      "type": "function"
    },
    {
      "inputs": [
        {
          "internalType": "address[]",
          "name": "_to",
          "type": "address[]"
        },
        {
          "internalType": "uint256[]",
          "name": "_amount",
          "type": "uint256[]"
        }
      ],
      "name": "distribute",
      "outputs": [],
      "stateMutability": "nonpayable",
      "type": "function"
    },
    {
      "inputs": [],
      "name": "owner",
      "outputs": [
        {
          "internalType": "address",
          "name": "",
          "type": "address"
        }
      ],
      "stateMutability": "view",
      "type": "function"
    },
    {
      "inputs": [],
      "name": "renounceOwnership",
      "outputs": [],
      "stateMutability": "nonpayable",
      "type": "function"
    },
    {
      "inputs": [],
      "name": "toBeClaimed",
      "outputs": [
        {
          "internalType": "uint256",
          "name": "",
          "type": "uint256"
        }
      ],
      "stateMutability": "view",
      "type": "function"
    },
    {
      "inputs": [],
      "name": "toBeDistributed",
      "outputs": [
        {
          "internalType": "uint256",
          "name": "",
          "type": "uint256"
        }
      ],
      "stateMutability": "view",
      "type": "function"
    },
    {
      "inputs": [],
      "name": "token",
      "outputs": [
        {
          "internalType": "contract IERC20",
          "name": "",
          "type": "address"
        }
      ],
      "stateMutability": "view",
      "type": "function"
    },
    {
      "inputs": [
        {
          "internalType": "address",
          "name": "newOwner",
          "type": "address"
        }
      ],
      "name": "transferOwnership",
      "outputs": [],
      "stateMutability": "nonpayable",
      "type": "function"
    },
    {
      "inputs": [],
      "name": "withdraw",
      "outputs": [],
      "stateMutability": "nonpayable",
      "type": "function"
    }
  ],
  "bytecode": "0x60a06040523480156200001157600080fd5b50604051620016bf380380620016bf8339818101604052810190620000379190620001c8565b620000576200004b6200009260201b60201c565b6200009a60201b60201c565b8073ffffffffffffffffffffffffffffffffffffffff1660808173ffffffffffffffffffffffffffffffffffffffff168152505050620001fa565b600033905090565b60008060009054906101000a900473ffffffffffffffffffffffffffffffffffffffff169050816000806101000a81548173ffffffffffffffffffffffffffffffffffffffff021916908373ffffffffffffffffffffffffffffffffffffffff1602179055508173ffffffffffffffffffffffffffffffffffffffff168173ffffffffffffffffffffffffffffffffffffffff167f8be0079c531659141344cd1fd0a4f28419497f9722a3daafe3b4186f6b6457e060405160405180910390a35050565b600080fd5b600073ffffffffffffffffffffffffffffffffffffffff82169050919050565b6000620001908262000163565b9050919050565b620001a28162000183565b8114620001ae57600080fd5b50565b600081519050620001c28162000197565b92915050565b600060208284031215620001e157620001e06200015e565b5b6000620001f184828501620001b1565b91505092915050565b60805161148d62000232600039600081816103710152818161057301528181610738015281816107e4015261088c015261148d6000f3fe608060405234801561001057600080fd5b506004361061009e5760003560e01c8063715018a611610066578063715018a6146101355780638da5cb5b1461013f578063cc5b542e1461015d578063f2fde38b1461017b578063fc0c546a146101975761009e565b80632929abe6146100a35780633ccfd60b146100bf5780634e71d92d146100c957806367ee62f4146100e757806370a0823114610105575b600080fd5b6100bd60048036038101906100b89190610cc7565b6101b5565b005b6100c7610312565b005b6100d161044c565b6040516100de9190610d4e565b60405180910390f35b6100ef610652565b6040516100fc9190610d4e565b60405180910390f35b61011f600480360381019061011a9190610d69565b610658565b60405161012c9190610d4e565b60405180910390f35b61013d610670565b005b610147610684565b6040516101549190610da5565b60405180910390f35b6101656106ad565b6040516101729190610d4e565b60405180910390f35b61019560048036038101906101909190610d69565b6106b3565b005b61019f610736565b6040516101ac9190610e1f565b60405180910390f35b6101bd61075a565b6101c56107d8565b60005b82518110156102d4578181815181106101e4576101e3610e3a565b5b6020026020010151600260008282546101fd9190610e98565b9250508190555081818151811061021757610216610e3a565b5b60200260200101516003600085848151811061023657610235610e3a565b5b602002602001015173ffffffffffffffffffffffffffffffffffffffff1673ffffffffffffffffffffffffffffffffffffffff16815260200190815260200160002060008282546102879190610ecc565b925050819055508181815181106102a1576102a0610e3a565b5b6020026020010151600160008282546102ba9190610ecc565b9250508190555080806102cc90610f22565b9150506101c8565b507f941e2db2d3f7223b69bfdd0b7f9ae133d58667b5a2abcd7969e975d226c0091082826040516103069291906110e6565b60405180910390a15050565b61031a61075a565b60015460025411610360576040517f08c379a0000000000000000000000000000000000000000000000000000000008152600401610357906111a0565b60405180910390fd5b6000600254905060006002819055507f000000000000000000000000000000000000000000000000000000000000000073ffffffffffffffffffffffffffffffffffffffff166323b872dd3033846040518463ffffffff1660e01b81526004016103cc939291906111c0565b6020604051808303816000875af11580156103eb573d6000803e3d6000fd5b505050506040513d601f19601f8201168201806040525081019061040f919061122f565b507f884edad9ce6fa2440d8a54cc123490eb96d2768479d49ff9c7366125a9424364338260405161044192919061125c565b60405180910390a150565b600080600360003373ffffffffffffffffffffffffffffffffffffffff1673ffffffffffffffffffffffffffffffffffffffff16815260200190815260200160002054116104cf576040517f08c379a00000000000000000000000000000000000000000000000000000000081526004016104c6906112f7565b60405180910390fd5b6000600360003373ffffffffffffffffffffffffffffffffffffffff1673ffffffffffffffffffffffffffffffffffffffff1681526020019081526020016000205490506000600360003373ffffffffffffffffffffffffffffffffffffffff1673ffffffffffffffffffffffffffffffffffffffff16815260200190815260200160002081905550806001600082825461056a9190610e98565b925050819055507f000000000000000000000000000000000000000000000000000000000000000073ffffffffffffffffffffffffffffffffffffffff166323b872dd3033846040518463ffffffff1660e01b81526004016105ce939291906111c0565b6020604051808303816000875af11580156105ed573d6000803e3d6000fd5b505050506040513d601f19601f82011682018060405250810190610611919061122f565b507f47cee97cb7acd717b3c0aa1435d004cd5b3c8c57d70dbceb4e4458bbd60e39d4338260405161064392919061125c565b60405180910390a18091505090565b60015481565b60036020528060005260406000206000915090505481565b61067861075a565b6106826000610937565b565b60008060009054906101000a900473ffffffffffffffffffffffffffffffffffffffff16905090565b60025481565b6106bb61075a565b600073ffffffffffffffffffffffffffffffffffffffff168173ffffffffffffffffffffffffffffffffffffffff160361072a576040517f08c379a000000000000000000000000000000000000000000000000000000000815260040161072190611389565b60405180910390fd5b61073381610937565b50565b7f000000000000000000000000000000000000000000000000000000000000000081565b6107626109fb565b73ffffffffffffffffffffffffffffffffffffffff16610780610684565b73ffffffffffffffffffffffffffffffffffffffff16146107d6576040517f08c379a00000000000000000000000000000000000000000000000000000000081526004016107cd906113f5565b60405180910390fd5b565b600060015403610887577f000000000000000000000000000000000000000000000000000000000000000073ffffffffffffffffffffffffffffffffffffffff166370a08231306040518263ffffffff1660e01b815260040161083b9190610da5565b602060405180830381865afa158015610858573d6000803e3d6000fd5b505050506040513d601f19601f8201168201806040525081019061087c919061142a565b600281905550610935565b6001547f000000000000000000000000000000000000000000000000000000000000000073ffffffffffffffffffffffffffffffffffffffff166370a08231306040518263ffffffff1660e01b81526004016108e39190610da5565b602060405180830381865afa158015610900573d6000803e3d6000fd5b505050506040513d601f19601f82011682018060405250810190610924919061142a565b61092e9190610e98565b6002819055505b565b60008060009054906101000a900473ffffffffffffffffffffffffffffffffffffffff169050816000806101000a81548173ffffffffffffffffffffffffffffffffffffffff021916908373ffffffffffffffffffffffffffffffffffffffff1602179055508173ffffffffffffffffffffffffffffffffffffffff168173ffffffffffffffffffffffffffffffffffffffff167f8be0079c531659141344cd1fd0a4f28419497f9722a3daafe3b4186f6b6457e060405160405180910390a35050565b600033905090565b6000604051905090565b600080fd5b600080fd5b600080fd5b6000601f19601f8301169050919050565b7f4e487b7100000000000000000000000000000000000000000000000000000000600052604160045260246000fd5b610a6582610a1c565b810181811067ffffffffffffffff82111715610a8457610a83610a2d565b5b80604052505050565b6000610a97610a03565b9050610aa38282610a5c565b919050565b600067ffffffffffffffff821115610ac357610ac2610a2d565b5b602082029050602081019050919050565b600080fd5b600073ffffffffffffffffffffffffffffffffffffffff82169050919050565b6000610b0482610ad9565b9050919050565b610b1481610af9565b8114610b1f57600080fd5b50565b600081359050610b3181610b0b565b92915050565b6000610b4a610b4584610aa8565b610a8d565b90508083825260208201905060208402830185811115610b6d57610b6c610ad4565b5b835b81811015610b965780610b828882610b22565b845260208401935050602081019050610b6f565b5050509392505050565b600082601f830112610bb557610bb4610a17565b5b8135610bc5848260208601610b37565b91505092915050565b600067ffffffffffffffff821115610be957610be8610a2d565b5b602082029050602081019050919050565b6000819050919050565b610c0d81610bfa565b8114610c1857600080fd5b50565b600081359050610c2a81610c04565b92915050565b6000610c43610c3e84610bce565b610a8d565b90508083825260208201905060208402830185811115610c6657610c65610ad4565b5b835b81811015610c8f5780610c7b8882610c1b565b845260208401935050602081019050610c68565b5050509392505050565b600082601f830112610cae57610cad610a17565b5b8135610cbe848260208601610c30565b91505092915050565b60008060408385031215610cde57610cdd610a0d565b5b600083013567ffffffffffffffff811115610cfc57610cfb610a12565b5b610d0885828601610ba0565b925050602083013567ffffffffffffffff811115610d2957610d28610a12565b5b610d3585828601610c99565b9150509250929050565b610d4881610bfa565b82525050565b6000602082019050610d636000830184610d3f565b92915050565b600060208284031215610d7f57610d7e610a0d565b5b6000610d8d84828501610b22565b91505092915050565b610d9f81610af9565b82525050565b6000602082019050610dba6000830184610d96565b92915050565b6000819050919050565b6000610de5610de0610ddb84610ad9565b610dc0565b610ad9565b9050919050565b6000610df782610dca565b9050919050565b6000610e0982610dec565b9050919050565b610e1981610dfe565b82525050565b6000602082019050610e346000830184610e10565b92915050565b7f4e487b7100000000000000000000000000000000000000000000000000000000600052603260045260246000fd5b7f4e487b7100000000000000000000000000000000000000000000000000000000600052601160045260246000fd5b6000610ea382610bfa565b9150610eae83610bfa565b925082821015610ec157610ec0610e69565b5b828203905092915050565b6000610ed782610bfa565b9150610ee283610bfa565b9250827fffffffffffffffffffffffffffffffffffffffffffffffffffffffffffffffff03821115610f1757610f16610e69565b5b828201905092915050565b6000610f2d82610bfa565b91507fffffffffffffffffffffffffffffffffffffffffffffffffffffffffffffffff8203610f5f57610f5e610e69565b5b600182019050919050565b600081519050919050565b600082825260208201905092915050565b6000819050602082019050919050565b610f9f81610af9565b82525050565b6000610fb18383610f96565b60208301905092915050565b6000602082019050919050565b6000610fd582610f6a565b610fdf8185610f75565b9350610fea83610f86565b8060005b8381101561101b5781516110028882610fa5565b975061100d83610fbd565b925050600181019050610fee565b5085935050505092915050565b600081519050919050565b600082825260208201905092915050565b6000819050602082019050919050565b61105d81610bfa565b82525050565b600061106f8383611054565b60208301905092915050565b6000602082019050919050565b600061109382611028565b61109d8185611033565b93506110a883611044565b8060005b838110156110d95781516110c08882611063565b97506110cb8361107b565b9250506001810190506110ac565b5085935050505092915050565b600060408201905081810360008301526111008185610fca565b905081810360208301526111148184611088565b90509392505050565b600082825260208201905092915050565b7f576974686472617720756e7375636365737366756c3a20616c6c20746f6b656e60008201527f732061726520636c61696d61626c6520627920766f7465727300000000000000602082015250565b600061118a60398361111d565b91506111958261112e565b604082019050919050565b600060208201905081810360008301526111b98161117d565b9050919050565b60006060820190506111d56000830186610d96565b6111e26020830185610d96565b6111ef6040830184610d3f565b949350505050565b60008115159050919050565b61120c816111f7565b811461121757600080fd5b50565b60008151905061122981611203565b92915050565b60006020828403121561124557611244610a0d565b5b60006112538482850161121a565b91505092915050565b60006040820190506112716000830185610d96565b61127e6020830184610d3f565b9392505050565b7f436c61696d20756e7375636365737366756c3a20796f75722062616c616e636560008201527f2069732030000000000000000000000000000000000000000000000000000000602082015250565b60006112e160258361111d565b91506112ec82611285565b604082019050919050565b60006020820190508181036000830152611310816112d4565b9050919050565b7f4f776e61626c653a206e6577206f776e657220697320746865207a65726f206160008201527f6464726573730000000000000000000000000000000000000000000000000000602082015250565b600061137360268361111d565b915061137e82611317565b604082019050919050565b600060208201905081810360008301526113a281611366565b9050919050565b7f4f776e61626c653a2063616c6c6572206973206e6f7420746865206f776e6572600082015250565b60006113df60208361111d565b91506113ea826113a9565b602082019050919050565b6000602082019050818103600083015261140e816113d2565b9050919050565b60008151905061142481610c04565b92915050565b6000602082840312156114405761143f610a0d565b5b600061144e84828501611415565b9150509291505056fea264697066735822122007767b9cebc49726acb4dae30f262e745a07c6bfe2995c739f8b362a0e03cc8864736f6c634300080d0033",
  "linkReferences": {},
  "deployedLinkReferences": {}
}