{
  "_format": "hh-sol-artifact-1",
  "contractName": "Collection",
  "sourceName": "contracts/Collection.sol",
  "abi": [
    {
      "inputs": [
        {
          "internalType": "address",
          "name": "_token",
          "type": "address"
        }
      ],
      "stateMutability": "nonpayable",
      "type": "constructor"
    },
    {
      "anonymous": false,
      "inputs": [
        {
          "indexed": false,
          "internalType": "address",
          "name": "",
          "type": "address"
        },
        {
          "indexed": false,
          "internalType": "uint256",
          "name": "",
          "type": "uint256"
        }
      ],
      "name": "Claim",
      "type": "event"
    },
    {
      "anonymous": false,
      "inputs": [
        {
          "indexed": false,
          "internalType": "address[]",
          "name": "",
          "type": "address[]"
        },
        {
          "indexed": false,
          "internalType": "uint256[]",
          "name": "",
          "type": "uint256[]"
        }
      ],
      "name": "Distribution",
      "type": "event"
    },
    {
      "anonymous": false,
      "inputs": [
        {
          "indexed": true,
          "internalType": "address",
          "name": "previousOwner",
          "type": "address"
        },
        {
          "indexed": true,
          "internalType": "address",
          "name": "newOwner",
          "type": "address"
        }
      ],
      "name": "OwnershipTransferred",
      "type": "event"
    },
    {
      "anonymous": false,
      "inputs": [
        {
          "indexed": false,
          "internalType": "address",
          "name": "",
          "type": "address"
        },
        {
          "indexed": false,
          "internalType": "uint256",
          "name": "",
          "type": "uint256"
        }
      ],
      "name": "Withdraw",
      "type": "event"
    },
    {
      "inputs": [
        {
          "internalType": "address[]",
          "name": "_to",
          "type": "address[]"
        },
        {
          "internalType": "uint256[]",
          "name": "_amount",
          "type": "uint256[]"
        }
      ],
      "name": "addReward",
      "outputs": [],
      "stateMutability": "nonpayable",
      "type": "function"
    },
    {
      "inputs": [
        {
          "internalType": "address",
          "name": "",
          "type": "address"
        }
      ],
      "name": "balanceOf",
      "outputs": [
        {
          "internalType": "uint256",
          "name": "",
          "type": "uint256"
        }
      ],
      "stateMutability": "view",
      "type": "function"
    },
    {
      "inputs": [],
      "name": "claim",
      "outputs": [
        {
          "internalType": "uint256",
          "name": "",
          "type": "uint256"
        }
      ],
      "stateMutability": "nonpayable",
      "type": "function"
    },
    {
      "inputs": [
        {
          "internalType": "address[]",
          "name": "_to",
          "type": "address[]"
        },
        {
          "internalType": "uint256[]",
          "name": "_amount",
          "type": "uint256[]"
        }
      ],
      "name": "distribute",
      "outputs": [],
      "stateMutability": "nonpayable",
      "type": "function"
    },
    {
      "inputs": [],
      "name": "owner",
      "outputs": [
        {
          "internalType": "address",
          "name": "",
          "type": "address"
        }
      ],
      "stateMutability": "view",
      "type": "function"
    },
    {
      "inputs": [],
      "name": "renounceOwnership",
      "outputs": [],
      "stateMutability": "nonpayable",
      "type": "function"
    },
    {
      "inputs": [],
      "name": "toBeClaimed",
      "outputs": [
        {
          "internalType": "uint256",
          "name": "",
          "type": "uint256"
        }
      ],
      "stateMutability": "view",
      "type": "function"
    },
    {
      "inputs": [],
      "name": "toBeDistributed",
      "outputs": [
        {
          "internalType": "uint256",
          "name": "",
          "type": "uint256"
        }
      ],
      "stateMutability": "view",
      "type": "function"
    },
    {
      "inputs": [],
      "name": "token",
      "outputs": [
        {
          "internalType": "contract IERC20",
          "name": "",
          "type": "address"
        }
      ],
      "stateMutability": "view",
      "type": "function"
    },
    {
      "inputs": [
        {
          "internalType": "address",
          "name": "newOwner",
          "type": "address"
        }
      ],
      "name": "transferOwnership",
      "outputs": [],
      "stateMutability": "nonpayable",
      "type": "function"
    },
    {
      "inputs": [],
      "name": "withdraw",
      "outputs": [],
      "stateMutability": "nonpayable",
      "type": "function"
    }
  ],
  "bytecode": "0x60a06040523480156200001157600080fd5b5060405162001825380380620018258339818101604052810190620000379190620001c8565b620000576200004b6200009260201b60201c565b6200009a60201b60201c565b8073ffffffffffffffffffffffffffffffffffffffff1660808173ffffffffffffffffffffffffffffffffffffffff168152505050620001fa565b600033905090565b60008060009054906101000a900473ffffffffffffffffffffffffffffffffffffffff169050816000806101000a81548173ffffffffffffffffffffffffffffffffffffffff021916908373ffffffffffffffffffffffffffffffffffffffff1602179055508173ffffffffffffffffffffffffffffffffffffffff168173ffffffffffffffffffffffffffffffffffffffff167f8be0079c531659141344cd1fd0a4f28419497f9722a3daafe3b4186f6b6457e060405160405180910390a35050565b600080fd5b600073ffffffffffffffffffffffffffffffffffffffff82169050919050565b6000620001908262000163565b9050919050565b620001a28162000183565b8114620001ae57600080fd5b50565b600081519050620001c28162000197565b92915050565b600060208284031215620001e157620001e06200015e565b5b6000620001f184828501620001b1565b91505092915050565b6080516115ec620002396000396000818161038a0152818161047301528181610673015281816108620152818161090e01526109b601526115ec6000f3fe608060405234801561001057600080fd5b50600436106100a95760003560e01c8063715018a611610071578063715018a6146101405780638da5cb5b1461014a578063ac8c489214610168578063cc5b542e14610184578063f2fde38b146101a2578063fc0c546a146101be576100a9565b80632929abe6146100ae5780633ccfd60b146100ca5780634e71d92d146100d457806367ee62f4146100f257806370a0823114610110575b600080fd5b6100c860048036038101906100c39190610df1565b6101dc565b005b6100d261037d565b005b6100dc61054c565b6040516100e99190610e78565b60405180910390f35b6100fa610750565b6040516101079190610e78565b60405180910390f35b61012a60048036038101906101259190610e93565b610756565b6040516101379190610e78565b60405180910390f35b61014861076e565b005b610152610782565b60405161015f9190610ecf565b60405180910390f35b610182600480360381019061017d9190610df1565b6107ab565b005b61018c6107d7565b6040516101999190610e78565b60405180910390f35b6101bc60048036038101906101b79190610e93565b6107dd565b005b6101c6610860565b6040516101d39190610f49565b60405180910390f35b6101e4610884565b8051825114610228576040517f08c379a000000000000000000000000000000000000000000000000000000000815260040161021f90610fc1565b60405180910390fd5b610230610902565b60005b825181101561033f5781818151811061024f5761024e610fe1565b5b602002602001015160026000828254610268919061103f565b9250508190555081818151811061028257610281610fe1565b5b6020026020010151600360008584815181106102a1576102a0610fe1565b5b602002602001015173ffffffffffffffffffffffffffffffffffffffff1673ffffffffffffffffffffffffffffffffffffffff16815260200190815260200160002060008282546102f29190611073565b9250508190555081818151811061030c5761030b610fe1565b5b6020026020010151600160008282546103259190611073565b925050819055508080610337906110c9565b915050610233565b507f941e2db2d3f7223b69bfdd0b7f9ae133d58667b5a2abcd7969e975d226c00910828260405161037192919061128d565b60405180910390a15050565b610385610884565b6001547f000000000000000000000000000000000000000000000000000000000000000073ffffffffffffffffffffffffffffffffffffffff166370a08231306040518263ffffffff1660e01b81526004016103e19190610ecf565b602060405180830381865afa1580156103fe573d6000803e3d6000fd5b505050506040513d601f19601f8201168201806040525081019061042291906112d9565b11610462576040517f08c379a000000000000000000000000000000000000000000000000000000000815260040161045990611378565b60405180910390fd5b6000600254905060006002819055507f000000000000000000000000000000000000000000000000000000000000000073ffffffffffffffffffffffffffffffffffffffff1663a9059cbb33836040518363ffffffff1660e01b81526004016104cc929190611398565b6020604051808303816000875af11580156104eb573d6000803e3d6000fd5b505050506040513d601f19601f8201168201806040525081019061050f91906113f9565b507f884edad9ce6fa2440d8a54cc123490eb96d2768479d49ff9c7366125a94243643382604051610541929190611398565b60405180910390a150565b600080600360003373ffffffffffffffffffffffffffffffffffffffff1673ffffffffffffffffffffffffffffffffffffffff16815260200190815260200160002054116105cf576040517f08c379a00000000000000000000000000000000000000000000000000000000081526004016105c690611498565b60405180910390fd5b6000600360003373ffffffffffffffffffffffffffffffffffffffff1673ffffffffffffffffffffffffffffffffffffffff1681526020019081526020016000205490506000600360003373ffffffffffffffffffffffffffffffffffffffff1673ffffffffffffffffffffffffffffffffffffffff16815260200190815260200160002081905550806001600082825461066a919061103f565b925050819055507f000000000000000000000000000000000000000000000000000000000000000073ffffffffffffffffffffffffffffffffffffffff1663a9059cbb33836040518363ffffffff1660e01b81526004016106cc929190611398565b6020604051808303816000875af11580156106eb573d6000803e3d6000fd5b505050506040513d601f19601f8201168201806040525081019061070f91906113f9565b507f47cee97cb7acd717b3c0aa1435d004cd5b3c8c57d70dbceb4e4458bbd60e39d43382604051610741929190611398565b60405180910390a18091505090565b60015481565b60036020528060005260406000206000915090505481565b610776610884565b6107806000610a61565b565b60008060009054906101000a900473ffffffffffffffffffffffffffffffffffffffff16905090565b6107b3610884565b60005b82518110156107d25780806107ca906110c9565b9150506107b6565b505050565b60025481565b6107e5610884565b600073ffffffffffffffffffffffffffffffffffffffff168173ffffffffffffffffffffffffffffffffffffffff1603610854576040517f08c379a000000000000000000000000000000000000000000000000000000000815260040161084b9061152a565b60405180910390fd5b61085d81610a61565b50565b7f000000000000000000000000000000000000000000000000000000000000000081565b61088c610b25565b73ffffffffffffffffffffffffffffffffffffffff166108aa610782565b73ffffffffffffffffffffffffffffffffffffffff1614610900576040517f08c379a00000000000000000000000000000000000000000000000000000000081526004016108f790611596565b60405180910390fd5b565b6000600154036109b1577f000000000000000000000000000000000000000000000000000000000000000073ffffffffffffffffffffffffffffffffffffffff166370a08231306040518263ffffffff1660e01b81526004016109659190610ecf565b602060405180830381865afa158015610982573d6000803e3d6000fd5b505050506040513d601f19601f820116820180604052508101906109a691906112d9565b600281905550610a5f565b6001547f000000000000000000000000000000000000000000000000000000000000000073ffffffffffffffffffffffffffffffffffffffff166370a08231306040518263ffffffff1660e01b8152600401610a0d9190610ecf565b602060405180830381865afa158015610a2a573d6000803e3d6000fd5b505050506040513d601f19601f82011682018060405250810190610a4e91906112d9565b610a58919061103f565b6002819055505b565b60008060009054906101000a900473ffffffffffffffffffffffffffffffffffffffff169050816000806101000a81548173ffffffffffffffffffffffffffffffffffffffff021916908373ffffffffffffffffffffffffffffffffffffffff1602179055508173ffffffffffffffffffffffffffffffffffffffff168173ffffffffffffffffffffffffffffffffffffffff167f8be0079c531659141344cd1fd0a4f28419497f9722a3daafe3b4186f6b6457e060405160405180910390a35050565b600033905090565b6000604051905090565b600080fd5b600080fd5b600080fd5b6000601f19601f8301169050919050565b7f4e487b7100000000000000000000000000000000000000000000000000000000600052604160045260246000fd5b610b8f82610b46565b810181811067ffffffffffffffff82111715610bae57610bad610b57565b5b80604052505050565b6000610bc1610b2d565b9050610bcd8282610b86565b919050565b600067ffffffffffffffff821115610bed57610bec610b57565b5b602082029050602081019050919050565b600080fd5b600073ffffffffffffffffffffffffffffffffffffffff82169050919050565b6000610c2e82610c03565b9050919050565b610c3e81610c23565b8114610c4957600080fd5b50565b600081359050610c5b81610c35565b92915050565b6000610c74610c6f84610bd2565b610bb7565b90508083825260208201905060208402830185811115610c9757610c96610bfe565b5b835b81811015610cc05780610cac8882610c4c565b845260208401935050602081019050610c99565b5050509392505050565b600082601f830112610cdf57610cde610b41565b5b8135610cef848260208601610c61565b91505092915050565b600067ffffffffffffffff821115610d1357610d12610b57565b5b602082029050602081019050919050565b6000819050919050565b610d3781610d24565b8114610d4257600080fd5b50565b600081359050610d5481610d2e565b92915050565b6000610d6d610d6884610cf8565b610bb7565b90508083825260208201905060208402830185811115610d9057610d8f610bfe565b5b835b81811015610db95780610da58882610d45565b845260208401935050602081019050610d92565b5050509392505050565b600082601f830112610dd857610dd7610b41565b5b8135610de8848260208601610d5a565b91505092915050565b60008060408385031215610e0857610e07610b37565b5b600083013567ffffffffffffffff811115610e2657610e25610b3c565b5b610e3285828601610cca565b925050602083013567ffffffffffffffff811115610e5357610e52610b3c565b5b610e5f85828601610dc3565b9150509250929050565b610e7281610d24565b82525050565b6000602082019050610e8d6000830184610e69565b92915050565b600060208284031215610ea957610ea8610b37565b5b6000610eb784828501610c4c565b91505092915050565b610ec981610c23565b82525050565b6000602082019050610ee46000830184610ec0565b92915050565b6000819050919050565b6000610f0f610f0a610f0584610c03565b610eea565b610c03565b9050919050565b6000610f2182610ef4565b9050919050565b6000610f3382610f16565b9050919050565b610f4381610f28565b82525050565b6000602082019050610f5e6000830184610f3a565b92915050565b600082825260208201905092915050565b7f417267756d656e7473206172726179206c656e677468206e6f7420657175616c600082015250565b6000610fab602083610f64565b9150610fb682610f75565b602082019050919050565b60006020820190508181036000830152610fda81610f9e565b9050919050565b7f4e487b7100000000000000000000000000000000000000000000000000000000600052603260045260246000fd5b7f4e487b7100000000000000000000000000000000000000000000000000000000600052601160045260246000fd5b600061104a82610d24565b915061105583610d24565b92508282101561106857611067611010565b5b828203905092915050565b600061107e82610d24565b915061108983610d24565b9250827fffffffffffffffffffffffffffffffffffffffffffffffffffffffffffffffff038211156110be576110bd611010565b5b828201905092915050565b60006110d482610d24565b91507fffffffffffffffffffffffffffffffffffffffffffffffffffffffffffffffff820361110657611105611010565b5b600182019050919050565b600081519050919050565b600082825260208201905092915050565b6000819050602082019050919050565b61114681610c23565b82525050565b6000611158838361113d565b60208301905092915050565b6000602082019050919050565b600061117c82611111565b611186818561111c565b93506111918361112d565b8060005b838110156111c25781516111a9888261114c565b97506111b483611164565b925050600181019050611195565b5085935050505092915050565b600081519050919050565b600082825260208201905092915050565b6000819050602082019050919050565b61120481610d24565b82525050565b600061121683836111fb565b60208301905092915050565b6000602082019050919050565b600061123a826111cf565b61124481856111da565b935061124f836111eb565b8060005b83811015611280578151611267888261120a565b975061127283611222565b925050600181019050611253565b5085935050505092915050565b600060408201905081810360008301526112a78185611171565b905081810360208301526112bb818461122f565b90509392505050565b6000815190506112d381610d2e565b92915050565b6000602082840312156112ef576112ee610b37565b5b60006112fd848285016112c4565b91505092915050565b7f576974686472617720756e7375636365737366756c3a20616c6c20746f6b656e60008201527f732061726520636c61696d61626c6520627920766f7465727300000000000000602082015250565b6000611362603983610f64565b915061136d82611306565b604082019050919050565b6000602082019050818103600083015261139181611355565b9050919050565b60006040820190506113ad6000830185610ec0565b6113ba6020830184610e69565b9392505050565b60008115159050919050565b6113d6816113c1565b81146113e157600080fd5b50565b6000815190506113f3816113cd565b92915050565b60006020828403121561140f5761140e610b37565b5b600061141d848285016113e4565b91505092915050565b7f436c61696d20756e7375636365737366756c3a20796f75722062616c616e636560008201527f2069732030000000000000000000000000000000000000000000000000000000602082015250565b6000611482602583610f64565b915061148d82611426565b604082019050919050565b600060208201905081810360008301526114b181611475565b9050919050565b7f4f776e61626c653a206e6577206f776e657220697320746865207a65726f206160008201527f6464726573730000000000000000000000000000000000000000000000000000602082015250565b6000611514602683610f64565b915061151f826114b8565b604082019050919050565b6000602082019050818103600083015261154381611507565b9050919050565b7f4f776e61626c653a2063616c6c6572206973206e6f7420746865206f776e6572600082015250565b6000611580602083610f64565b915061158b8261154a565b602082019050919050565b600060208201905081810360008301526115af81611573565b905091905056fea2646970667358221220c0c9c5fa8f61280604cade3379826d358f8e727af75e0d44ad8d86f6f735d36664736f6c634300080d0033",
  "linkReferences": {},
  "deployedLinkReferences": {}
}