{
  "_format": "hh-sol-artifact-1",
  "contractName": "Collection",
  "sourceName": "contracts/Collection.sol",
  "abi": [
    {
      "inputs": [
        {
          "internalType": "address",
          "name": "_token",
          "type": "address"
        }
      ],
      "stateMutability": "nonpayable",
      "type": "constructor"
    },
    {
      "anonymous": false,
      "inputs": [
        {
          "indexed": false,
          "internalType": "address",
          "name": "",
          "type": "address"
        },
        {
          "indexed": false,
          "internalType": "uint256",
          "name": "",
          "type": "uint256"
        }
      ],
      "name": "Claim",
      "type": "event"
    },
    {
      "anonymous": false,
      "inputs": [
        {
          "indexed": false,
          "internalType": "address[]",
          "name": "",
          "type": "address[]"
        },
        {
          "indexed": false,
          "internalType": "uint256[]",
          "name": "",
          "type": "uint256[]"
        }
      ],
      "name": "Distribution",
      "type": "event"
    },
    {
      "anonymous": false,
      "inputs": [
        {
          "indexed": true,
          "internalType": "address",
          "name": "previousOwner",
          "type": "address"
        },
        {
          "indexed": true,
          "internalType": "address",
          "name": "newOwner",
          "type": "address"
        }
      ],
      "name": "OwnershipTransferred",
      "type": "event"
    },
    {
      "anonymous": false,
      "inputs": [
        {
          "indexed": false,
          "internalType": "address",
          "name": "",
          "type": "address"
        },
        {
          "indexed": false,
          "internalType": "uint256",
          "name": "",
          "type": "uint256"
        }
      ],
      "name": "Withdraw",
      "type": "event"
    },
    {
      "inputs": [
        {
          "internalType": "address",
          "name": "",
          "type": "address"
        }
      ],
      "name": "balanceOf",
      "outputs": [
        {
          "internalType": "uint256",
          "name": "",
          "type": "uint256"
        }
      ],
      "stateMutability": "view",
      "type": "function"
    },
    {
      "inputs": [],
      "name": "claim",
      "outputs": [
        {
          "internalType": "uint256",
          "name": "",
          "type": "uint256"
        }
      ],
      "stateMutability": "nonpayable",
      "type": "function"
    },
    {
      "inputs": [
        {
          "internalType": "address[]",
          "name": "_to",
          "type": "address[]"
        },
        {
          "internalType": "uint256[]",
          "name": "_amount",
          "type": "uint256[]"
        }
      ],
      "name": "distribute",
      "outputs": [],
      "stateMutability": "nonpayable",
      "type": "function"
    },
    {
      "inputs": [],
      "name": "owner",
      "outputs": [
        {
          "internalType": "address",
          "name": "",
          "type": "address"
        }
      ],
      "stateMutability": "view",
      "type": "function"
    },
    {
      "inputs": [],
      "name": "renounceOwnership",
      "outputs": [],
      "stateMutability": "nonpayable",
      "type": "function"
    },
    {
      "inputs": [],
      "name": "toBeClaimed",
      "outputs": [
        {
          "internalType": "uint256",
          "name": "",
          "type": "uint256"
        }
      ],
      "stateMutability": "view",
      "type": "function"
    },
    {
      "inputs": [],
      "name": "toBeDistributed",
      "outputs": [
        {
          "internalType": "uint256",
          "name": "",
          "type": "uint256"
        }
      ],
      "stateMutability": "view",
      "type": "function"
    },
    {
      "inputs": [],
      "name": "token",
      "outputs": [
        {
          "internalType": "contract IERC20",
          "name": "",
          "type": "address"
        }
      ],
      "stateMutability": "view",
      "type": "function"
    },
    {
      "inputs": [
        {
          "internalType": "address",
          "name": "newOwner",
          "type": "address"
        }
      ],
      "name": "transferOwnership",
      "outputs": [],
      "stateMutability": "nonpayable",
      "type": "function"
    },
    {
      "inputs": [],
      "name": "withdraw",
      "outputs": [],
      "stateMutability": "nonpayable",
      "type": "function"
    }
  ],
  "bytecode": "0x60a06040523480156200001157600080fd5b506040516200176f3803806200176f8339818101604052810190620000379190620001c8565b620000576200004b6200009260201b60201c565b6200009a60201b60201c565b8073ffffffffffffffffffffffffffffffffffffffff1660808173ffffffffffffffffffffffffffffffffffffffff168152505050620001fa565b600033905090565b60008060009054906101000a900473ffffffffffffffffffffffffffffffffffffffff169050816000806101000a81548173ffffffffffffffffffffffffffffffffffffffff021916908373ffffffffffffffffffffffffffffffffffffffff1602179055508173ffffffffffffffffffffffffffffffffffffffff168173ffffffffffffffffffffffffffffffffffffffff167f8be0079c531659141344cd1fd0a4f28419497f9722a3daafe3b4186f6b6457e060405160405180910390a35050565b600080fd5b600073ffffffffffffffffffffffffffffffffffffffff82169050919050565b6000620001908262000163565b9050919050565b620001a28162000183565b8114620001ae57600080fd5b50565b600081519050620001c28162000197565b92915050565b600060208284031215620001e157620001e06200015e565b5b6000620001f184828501620001b1565b91505092915050565b60805161153d62000232600039600081816103b5015281816105b70152818161077c0152818161082801526108d0015261153d6000f3fe608060405234801561001057600080fd5b506004361061009e5760003560e01c8063715018a611610066578063715018a6146101355780638da5cb5b1461013f578063cc5b542e1461015d578063f2fde38b1461017b578063fc0c546a146101975761009e565b80632929abe6146100a35780633ccfd60b146100bf5780634e71d92d146100c957806367ee62f4146100e757806370a0823114610105575b600080fd5b6100bd60048036038101906100b89190610d0b565b6101b5565b005b6100c7610356565b005b6100d1610490565b6040516100de9190610d92565b60405180910390f35b6100ef610696565b6040516100fc9190610d92565b60405180910390f35b61011f600480360381019061011a9190610dad565b61069c565b60405161012c9190610d92565b60405180910390f35b61013d6106b4565b005b6101476106c8565b6040516101549190610de9565b60405180910390f35b6101656106f1565b6040516101729190610d92565b60405180910390f35b61019560048036038101906101909190610dad565b6106f7565b005b61019f61077a565b6040516101ac9190610e63565b60405180910390f35b6101bd61079e565b8051825114610201576040517f08c379a00000000000000000000000000000000000000000000000000000000081526004016101f890610edb565b60405180910390fd5b61020961081c565b60005b82518110156103185781818151811061022857610227610efb565b5b6020026020010151600260008282546102419190610f59565b9250508190555081818151811061025b5761025a610efb565b5b60200260200101516003600085848151811061027a57610279610efb565b5b602002602001015173ffffffffffffffffffffffffffffffffffffffff1673ffffffffffffffffffffffffffffffffffffffff16815260200190815260200160002060008282546102cb9190610f8d565b925050819055508181815181106102e5576102e4610efb565b5b6020026020010151600160008282546102fe9190610f8d565b92505081905550808061031090610fe3565b91505061020c565b507f941e2db2d3f7223b69bfdd0b7f9ae133d58667b5a2abcd7969e975d226c00910828260405161034a9291906111a7565b60405180910390a15050565b61035e61079e565b600154600254116103a4576040517f08c379a000000000000000000000000000000000000000000000000000000000815260040161039b90611250565b60405180910390fd5b6000600254905060006002819055507f000000000000000000000000000000000000000000000000000000000000000073ffffffffffffffffffffffffffffffffffffffff166323b872dd3033846040518463ffffffff1660e01b815260040161041093929190611270565b6020604051808303816000875af115801561042f573d6000803e3d6000fd5b505050506040513d601f19601f8201168201806040525081019061045391906112df565b507f884edad9ce6fa2440d8a54cc123490eb96d2768479d49ff9c7366125a9424364338260405161048592919061130c565b60405180910390a150565b600080600360003373ffffffffffffffffffffffffffffffffffffffff1673ffffffffffffffffffffffffffffffffffffffff1681526020019081526020016000205411610513576040517f08c379a000000000000000000000000000000000000000000000000000000000815260040161050a906113a7565b60405180910390fd5b6000600360003373ffffffffffffffffffffffffffffffffffffffff1673ffffffffffffffffffffffffffffffffffffffff1681526020019081526020016000205490506000600360003373ffffffffffffffffffffffffffffffffffffffff1673ffffffffffffffffffffffffffffffffffffffff1681526020019081526020016000208190555080600160008282546105ae9190610f59565b925050819055507f000000000000000000000000000000000000000000000000000000000000000073ffffffffffffffffffffffffffffffffffffffff166323b872dd3033846040518463ffffffff1660e01b815260040161061293929190611270565b6020604051808303816000875af1158015610631573d6000803e3d6000fd5b505050506040513d601f19601f8201168201806040525081019061065591906112df565b507f47cee97cb7acd717b3c0aa1435d004cd5b3c8c57d70dbceb4e4458bbd60e39d4338260405161068792919061130c565b60405180910390a18091505090565b60015481565b60036020528060005260406000206000915090505481565b6106bc61079e565b6106c6600061097b565b565b60008060009054906101000a900473ffffffffffffffffffffffffffffffffffffffff16905090565b60025481565b6106ff61079e565b600073ffffffffffffffffffffffffffffffffffffffff168173ffffffffffffffffffffffffffffffffffffffff160361076e576040517f08c379a000000000000000000000000000000000000000000000000000000000815260040161076590611439565b60405180910390fd5b6107778161097b565b50565b7f000000000000000000000000000000000000000000000000000000000000000081565b6107a6610a3f565b73ffffffffffffffffffffffffffffffffffffffff166107c46106c8565b73ffffffffffffffffffffffffffffffffffffffff161461081a576040517f08c379a0000000000000000000000000000000000000000000000000000000008152600401610811906114a5565b60405180910390fd5b565b6000600154036108cb577f000000000000000000000000000000000000000000000000000000000000000073ffffffffffffffffffffffffffffffffffffffff166370a08231306040518263ffffffff1660e01b815260040161087f9190610de9565b602060405180830381865afa15801561089c573d6000803e3d6000fd5b505050506040513d601f19601f820116820180604052508101906108c091906114da565b600281905550610979565b6001547f000000000000000000000000000000000000000000000000000000000000000073ffffffffffffffffffffffffffffffffffffffff166370a08231306040518263ffffffff1660e01b81526004016109279190610de9565b602060405180830381865afa158015610944573d6000803e3d6000fd5b505050506040513d601f19601f8201168201806040525081019061096891906114da565b6109729190610f59565b6002819055505b565b60008060009054906101000a900473ffffffffffffffffffffffffffffffffffffffff169050816000806101000a81548173ffffffffffffffffffffffffffffffffffffffff021916908373ffffffffffffffffffffffffffffffffffffffff1602179055508173ffffffffffffffffffffffffffffffffffffffff168173ffffffffffffffffffffffffffffffffffffffff167f8be0079c531659141344cd1fd0a4f28419497f9722a3daafe3b4186f6b6457e060405160405180910390a35050565b600033905090565b6000604051905090565b600080fd5b600080fd5b600080fd5b6000601f19601f8301169050919050565b7f4e487b7100000000000000000000000000000000000000000000000000000000600052604160045260246000fd5b610aa982610a60565b810181811067ffffffffffffffff82111715610ac857610ac7610a71565b5b80604052505050565b6000610adb610a47565b9050610ae78282610aa0565b919050565b600067ffffffffffffffff821115610b0757610b06610a71565b5b602082029050602081019050919050565b600080fd5b600073ffffffffffffffffffffffffffffffffffffffff82169050919050565b6000610b4882610b1d565b9050919050565b610b5881610b3d565b8114610b6357600080fd5b50565b600081359050610b7581610b4f565b92915050565b6000610b8e610b8984610aec565b610ad1565b90508083825260208201905060208402830185811115610bb157610bb0610b18565b5b835b81811015610bda5780610bc68882610b66565b845260208401935050602081019050610bb3565b5050509392505050565b600082601f830112610bf957610bf8610a5b565b5b8135610c09848260208601610b7b565b91505092915050565b600067ffffffffffffffff821115610c2d57610c2c610a71565b5b602082029050602081019050919050565b6000819050919050565b610c5181610c3e565b8114610c5c57600080fd5b50565b600081359050610c6e81610c48565b92915050565b6000610c87610c8284610c12565b610ad1565b90508083825260208201905060208402830185811115610caa57610ca9610b18565b5b835b81811015610cd35780610cbf8882610c5f565b845260208401935050602081019050610cac565b5050509392505050565b600082601f830112610cf257610cf1610a5b565b5b8135610d02848260208601610c74565b91505092915050565b60008060408385031215610d2257610d21610a51565b5b600083013567ffffffffffffffff811115610d4057610d3f610a56565b5b610d4c85828601610be4565b925050602083013567ffffffffffffffff811115610d6d57610d6c610a56565b5b610d7985828601610cdd565b9150509250929050565b610d8c81610c3e565b82525050565b6000602082019050610da76000830184610d83565b92915050565b600060208284031215610dc357610dc2610a51565b5b6000610dd184828501610b66565b91505092915050565b610de381610b3d565b82525050565b6000602082019050610dfe6000830184610dda565b92915050565b6000819050919050565b6000610e29610e24610e1f84610b1d565b610e04565b610b1d565b9050919050565b6000610e3b82610e0e565b9050919050565b6000610e4d82610e30565b9050919050565b610e5d81610e42565b82525050565b6000602082019050610e786000830184610e54565b92915050565b600082825260208201905092915050565b7f417267756d656e7473206172726179206c656e677468206e6f7420657175616c600082015250565b6000610ec5602083610e7e565b9150610ed082610e8f565b602082019050919050565b60006020820190508181036000830152610ef481610eb8565b9050919050565b7f4e487b7100000000000000000000000000000000000000000000000000000000600052603260045260246000fd5b7f4e487b7100000000000000000000000000000000000000000000000000000000600052601160045260246000fd5b6000610f6482610c3e565b9150610f6f83610c3e565b925082821015610f8257610f81610f2a565b5b828203905092915050565b6000610f9882610c3e565b9150610fa383610c3e565b9250827fffffffffffffffffffffffffffffffffffffffffffffffffffffffffffffffff03821115610fd857610fd7610f2a565b5b828201905092915050565b6000610fee82610c3e565b91507fffffffffffffffffffffffffffffffffffffffffffffffffffffffffffffffff82036110205761101f610f2a565b5b600182019050919050565b600081519050919050565b600082825260208201905092915050565b6000819050602082019050919050565b61106081610b3d565b82525050565b60006110728383611057565b60208301905092915050565b6000602082019050919050565b60006110968261102b565b6110a08185611036565b93506110ab83611047565b8060005b838110156110dc5781516110c38882611066565b97506110ce8361107e565b9250506001810190506110af565b5085935050505092915050565b600081519050919050565b600082825260208201905092915050565b6000819050602082019050919050565b61111e81610c3e565b82525050565b60006111308383611115565b60208301905092915050565b6000602082019050919050565b6000611154826110e9565b61115e81856110f4565b935061116983611105565b8060005b8381101561119a5781516111818882611124565b975061118c8361113c565b92505060018101905061116d565b5085935050505092915050565b600060408201905081810360008301526111c1818561108b565b905081810360208301526111d58184611149565b90509392505050565b7f576974686472617720756e7375636365737366756c3a20616c6c20746f6b656e60008201527f732061726520636c61696d61626c6520627920766f7465727300000000000000602082015250565b600061123a603983610e7e565b9150611245826111de565b604082019050919050565b600060208201905081810360008301526112698161122d565b9050919050565b60006060820190506112856000830186610dda565b6112926020830185610dda565b61129f6040830184610d83565b949350505050565b60008115159050919050565b6112bc816112a7565b81146112c757600080fd5b50565b6000815190506112d9816112b3565b92915050565b6000602082840312156112f5576112f4610a51565b5b6000611303848285016112ca565b91505092915050565b60006040820190506113216000830185610dda565b61132e6020830184610d83565b9392505050565b7f436c61696d20756e7375636365737366756c3a20796f75722062616c616e636560008201527f2069732030000000000000000000000000000000000000000000000000000000602082015250565b6000611391602583610e7e565b915061139c82611335565b604082019050919050565b600060208201905081810360008301526113c081611384565b9050919050565b7f4f776e61626c653a206e6577206f776e657220697320746865207a65726f206160008201527f6464726573730000000000000000000000000000000000000000000000000000602082015250565b6000611423602683610e7e565b915061142e826113c7565b604082019050919050565b6000602082019050818103600083015261145281611416565b9050919050565b7f4f776e61626c653a2063616c6c6572206973206e6f7420746865206f776e6572600082015250565b600061148f602083610e7e565b915061149a82611459565b602082019050919050565b600060208201905081810360008301526114be81611482565b9050919050565b6000815190506114d481610c48565b92915050565b6000602082840312156114f0576114ef610a51565b5b60006114fe848285016114c5565b9150509291505056fea26469706673582212203e5cecf6165cb7e8028d62e13dbb29a495d5a323aaa04148501079732affe4b364736f6c634300080d0033",
  "linkReferences": {},
  "deployedLinkReferences": {}
}