{
  "_format": "hh-sol-artifact-1",
  "contractName": "Collection",
  "sourceName": "contracts/Collection.sol",
  "abi": [
    {
      "inputs": [
        {
          "internalType": "address",
          "name": "_token",
          "type": "address"
        }
      ],
      "stateMutability": "nonpayable",
      "type": "constructor"
    },
    {
      "inputs": [],
      "name": "BalanceClaimableByVoters",
      "type": "error"
    },
    {
      "inputs": [],
      "name": "InsufficientBalance",
      "type": "error"
    },
    {
      "anonymous": false,
      "inputs": [
        {
          "indexed": false,
          "internalType": "address",
          "name": "",
          "type": "address"
        },
        {
          "indexed": false,
          "internalType": "uint256",
          "name": "",
          "type": "uint256"
        }
      ],
      "name": "Claim",
      "type": "event"
    },
    {
      "anonymous": false,
      "inputs": [
        {
          "indexed": true,
          "internalType": "address",
          "name": "previousOwner",
          "type": "address"
        },
        {
          "indexed": true,
          "internalType": "address",
          "name": "newOwner",
          "type": "address"
        }
      ],
      "name": "OwnershipTransferred",
      "type": "event"
    },
    {
      "anonymous": false,
      "inputs": [
        {
          "components": [
            {
              "internalType": "address",
              "name": "_address",
              "type": "address"
            },
            {
              "internalType": "uint256",
              "name": "_amount",
              "type": "uint256"
            }
          ],
          "indexed": false,
          "internalType": "struct Collection.Reward[]",
          "name": "",
          "type": "tuple[]"
        }
      ],
      "name": "Rewards",
      "type": "event"
    },
    {
      "anonymous": false,
      "inputs": [
        {
          "indexed": false,
          "internalType": "address",
          "name": "",
          "type": "address"
        },
        {
          "indexed": false,
          "internalType": "uint256",
          "name": "",
          "type": "uint256"
        }
      ],
      "name": "Withdraw",
      "type": "event"
    },
    {
      "inputs": [
        {
          "internalType": "address",
          "name": "",
          "type": "address"
        }
      ],
      "name": "balanceOf",
      "outputs": [
        {
          "internalType": "uint256",
          "name": "",
          "type": "uint256"
        }
      ],
      "stateMutability": "view",
      "type": "function"
    },
    {
      "inputs": [],
      "name": "claim",
      "outputs": [
        {
          "internalType": "uint256",
          "name": "",
          "type": "uint256"
        }
      ],
      "stateMutability": "nonpayable",
      "type": "function"
    },
    {
      "inputs": [],
      "name": "claimableByVoters",
      "outputs": [
        {
          "internalType": "uint256",
          "name": "",
          "type": "uint256"
        }
      ],
      "stateMutability": "view",
      "type": "function"
    },
    {
      "inputs": [],
      "name": "owner",
      "outputs": [
        {
          "internalType": "address",
          "name": "",
          "type": "address"
        }
      ],
      "stateMutability": "view",
      "type": "function"
    },
    {
      "inputs": [],
      "name": "renounceOwnership",
      "outputs": [],
      "stateMutability": "nonpayable",
      "type": "function"
    },
    {
      "inputs": [
        {
          "components": [
            {
              "internalType": "address",
              "name": "_address",
              "type": "address"
            },
            {
              "internalType": "uint256",
              "name": "_amount",
              "type": "uint256"
            }
          ],
          "internalType": "struct Collection.Reward[]",
          "name": "rewards",
          "type": "tuple[]"
        }
      ],
      "name": "setRewards",
      "outputs": [],
      "stateMutability": "nonpayable",
      "type": "function"
    },
    {
      "inputs": [],
      "name": "token",
      "outputs": [
        {
          "internalType": "contract IERC20",
          "name": "",
          "type": "address"
        }
      ],
      "stateMutability": "view",
      "type": "function"
    },
    {
      "inputs": [
        {
          "internalType": "address",
          "name": "newOwner",
          "type": "address"
        }
      ],
      "name": "transferOwnership",
      "outputs": [],
      "stateMutability": "nonpayable",
      "type": "function"
    },
    {
      "inputs": [],
      "name": "withdraw",
      "outputs": [],
      "stateMutability": "nonpayable",
      "type": "function"
    },
    {
      "inputs": [],
      "name": "withdrawableByDao",
      "outputs": [
        {
          "internalType": "uint256",
          "name": "",
          "type": "uint256"
        }
      ],
      "stateMutability": "view",
      "type": "function"
    }
  ],
  "bytecode": "0x60a06040523480156200001157600080fd5b50604051620014bf380380620014bf8339818101604052810190620000379190620001c8565b620000576200004b6200009260201b60201c565b6200009a60201b60201c565b8073ffffffffffffffffffffffffffffffffffffffff1660808173ffffffffffffffffffffffffffffffffffffffff168152505050620001fa565b600033905090565b60008060009054906101000a900473ffffffffffffffffffffffffffffffffffffffff169050816000806101000a81548173ffffffffffffffffffffffffffffffffffffffff021916908373ffffffffffffffffffffffffffffffffffffffff1602179055508173ffffffffffffffffffffffffffffffffffffffff168173ffffffffffffffffffffffffffffffffffffffff167f8be0079c531659141344cd1fd0a4f28419497f9722a3daafe3b4186f6b6457e060405160405180910390a35050565b600080fd5b600073ffffffffffffffffffffffffffffffffffffffff82169050919050565b6000620001908262000163565b9050919050565b620001a28162000183565b8114620001ae57600080fd5b50565b600081519050620001c28162000197565b92915050565b600060208284031215620001e157620001e06200015e565b5b6000620001f184828501620001b1565b91505092915050565b60805161128d62000232600039600081816102130152818161040a015281816107c5015281816108710152610919015261128d6000f3fe608060405234801561001057600080fd5b506004361061009e5760003560e01c80638da5cb5b116100665780638da5cb5b146101235780639ccdff3914610141578063beb382321461015d578063f2fde38b1461017b578063fc0c546a146101975761009e565b80633ccfd60b146100a35780634e71d92d146100ad57806370a08231146100cb578063715018a6146100fb5780638991913d14610105575b600080fd5b6100ab6101b5565b005b6100b56102ec565b6040516100c29190610aa9565b60405180910390f35b6100e560048036038101906100e09190610b36565b6104e7565b6040516100f29190610aa9565b60405180910390f35b6101036104ff565b005b61010d610513565b60405161011a9190610aa9565b60405180910390f35b61012b610519565b6040516101389190610b72565b60405180910390f35b61015b60048036038101906101569190610d67565b610542565b005b61016561073a565b6040516101729190610aa9565b60405180910390f35b61019560048036038101906101909190610b36565b610740565b005b61019f6107c3565b6040516101ac9190610e0f565b60405180910390f35b6101bd6107e7565b6101c5610865565b60025460015411610202576040517f13e54d8a00000000000000000000000000000000000000000000000000000000815260040160405180910390fd5b6000600154905060006001819055507f000000000000000000000000000000000000000000000000000000000000000073ffffffffffffffffffffffffffffffffffffffff1663a9059cbb33836040518363ffffffff1660e01b815260040161026c929190610e2a565b6020604051808303816000875af115801561028b573d6000803e3d6000fd5b505050506040513d601f19601f820116820180604052508101906102af9190610e8b565b507f884edad9ce6fa2440d8a54cc123490eb96d2768479d49ff9c7366125a942436433826040516102e1929190610e2a565b60405180910390a150565b600080600360003373ffffffffffffffffffffffffffffffffffffffff1673ffffffffffffffffffffffffffffffffffffffff1681526020019081526020016000205403610366576040517ff4d678b800000000000000000000000000000000000000000000000000000000815260040160405180910390fd5b6000600360003373ffffffffffffffffffffffffffffffffffffffff1673ffffffffffffffffffffffffffffffffffffffff1681526020019081526020016000205490506000600360003373ffffffffffffffffffffffffffffffffffffffff1673ffffffffffffffffffffffffffffffffffffffff1681526020019081526020016000208190555080600260008282546104019190610ee7565b925050819055507f000000000000000000000000000000000000000000000000000000000000000073ffffffffffffffffffffffffffffffffffffffff1663a9059cbb33836040518363ffffffff1660e01b8152600401610463929190610e2a565b6020604051808303816000875af1158015610482573d6000803e3d6000fd5b505050506040513d601f19601f820116820180604052508101906104a69190610e8b565b507f47cee97cb7acd717b3c0aa1435d004cd5b3c8c57d70dbceb4e4458bbd60e39d433826040516104d8929190610e2a565b60405180910390a18091505090565b60036020528060005260406000206000915090505481565b6105076107e7565b61051160006109c4565b565b60015481565b60008060009054906101000a900473ffffffffffffffffffffffffffffffffffffffff16905090565b61054a6107e7565b610552610865565b600080600090505b82518110156105a25782818151811061057657610575610f1b565b5b6020026020010151602001518261058d9190610f4a565b9150808061059a90610fa0565b91505061055a565b508060015410156105df576040517ff4d678b800000000000000000000000000000000000000000000000000000000815260040160405180910390fd5b60005b82518110156106fe578281815181106105fe576105fd610f1b565b5b6020026020010151602001516001600082825461061b9190610ee7565b9250508190555082818151811061063557610634610f1b565b5b6020026020010151602001516003600085848151811061065857610657610f1b565b5b60200260200101516000015173ffffffffffffffffffffffffffffffffffffffff1673ffffffffffffffffffffffffffffffffffffffff16815260200190815260200160002060008282546106ad9190610f4a565b925050819055508281815181106106c7576106c6610f1b565b5b602002602001015160200151600260008282546106e49190610f4a565b9250508190555080806106f690610fa0565b9150506105e2565b507f9ee4859a2abc19b4ba84a56dd0a86f47b0faf28a8c3247267e86d188130e22e18260405161072e91906110e4565b60405180910390a15050565b60025481565b6107486107e7565b600073ffffffffffffffffffffffffffffffffffffffff168173ffffffffffffffffffffffffffffffffffffffff16036107b7576040517f08c379a00000000000000000000000000000000000000000000000000000000081526004016107ae90611189565b60405180910390fd5b6107c0816109c4565b50565b7f000000000000000000000000000000000000000000000000000000000000000081565b6107ef610a88565b73ffffffffffffffffffffffffffffffffffffffff1661080d610519565b73ffffffffffffffffffffffffffffffffffffffff1614610863576040517f08c379a000000000000000000000000000000000000000000000000000000000815260040161085a906111f5565b60405180910390fd5b565b600060025403610914577f000000000000000000000000000000000000000000000000000000000000000073ffffffffffffffffffffffffffffffffffffffff166370a08231306040518263ffffffff1660e01b81526004016108c89190610b72565b602060405180830381865afa1580156108e5573d6000803e3d6000fd5b505050506040513d601f19601f82011682018060405250810190610909919061122a565b6001819055506109c2565b6002547f000000000000000000000000000000000000000000000000000000000000000073ffffffffffffffffffffffffffffffffffffffff166370a08231306040518263ffffffff1660e01b81526004016109709190610b72565b602060405180830381865afa15801561098d573d6000803e3d6000fd5b505050506040513d601f19601f820116820180604052508101906109b1919061122a565b6109bb9190610ee7565b6001819055505b565b60008060009054906101000a900473ffffffffffffffffffffffffffffffffffffffff169050816000806101000a81548173ffffffffffffffffffffffffffffffffffffffff021916908373ffffffffffffffffffffffffffffffffffffffff1602179055508173ffffffffffffffffffffffffffffffffffffffff168173ffffffffffffffffffffffffffffffffffffffff167f8be0079c531659141344cd1fd0a4f28419497f9722a3daafe3b4186f6b6457e060405160405180910390a35050565b600033905090565b6000819050919050565b610aa381610a90565b82525050565b6000602082019050610abe6000830184610a9a565b92915050565b6000604051905090565b600080fd5b600080fd5b600073ffffffffffffffffffffffffffffffffffffffff82169050919050565b6000610b0382610ad8565b9050919050565b610b1381610af8565b8114610b1e57600080fd5b50565b600081359050610b3081610b0a565b92915050565b600060208284031215610b4c57610b4b610ace565b5b6000610b5a84828501610b21565b91505092915050565b610b6c81610af8565b82525050565b6000602082019050610b876000830184610b63565b92915050565b600080fd5b6000601f19601f8301169050919050565b7f4e487b7100000000000000000000000000000000000000000000000000000000600052604160045260246000fd5b610bdb82610b92565b810181811067ffffffffffffffff82111715610bfa57610bf9610ba3565b5b80604052505050565b6000610c0d610ac4565b9050610c198282610bd2565b919050565b600067ffffffffffffffff821115610c3957610c38610ba3565b5b602082029050602081019050919050565b600080fd5b600080fd5b610c5d81610a90565b8114610c6857600080fd5b50565b600081359050610c7a81610c54565b92915050565b600060408284031215610c9657610c95610c4f565b5b610ca06040610c03565b90506000610cb084828501610b21565b6000830152506020610cc484828501610c6b565b60208301525092915050565b6000610ce3610cde84610c1e565b610c03565b90508083825260208201905060408402830185811115610d0657610d05610c4a565b5b835b81811015610d2f5780610d1b8882610c80565b845260208401935050604081019050610d08565b5050509392505050565b600082601f830112610d4e57610d4d610b8d565b5b8135610d5e848260208601610cd0565b91505092915050565b600060208284031215610d7d57610d7c610ace565b5b600082013567ffffffffffffffff811115610d9b57610d9a610ad3565b5b610da784828501610d39565b91505092915050565b6000819050919050565b6000610dd5610dd0610dcb84610ad8565b610db0565b610ad8565b9050919050565b6000610de782610dba565b9050919050565b6000610df982610ddc565b9050919050565b610e0981610dee565b82525050565b6000602082019050610e246000830184610e00565b92915050565b6000604082019050610e3f6000830185610b63565b610e4c6020830184610a9a565b9392505050565b60008115159050919050565b610e6881610e53565b8114610e7357600080fd5b50565b600081519050610e8581610e5f565b92915050565b600060208284031215610ea157610ea0610ace565b5b6000610eaf84828501610e76565b91505092915050565b7f4e487b7100000000000000000000000000000000000000000000000000000000600052601160045260246000fd5b6000610ef282610a90565b9150610efd83610a90565b925082821015610f1057610f0f610eb8565b5b828203905092915050565b7f4e487b7100000000000000000000000000000000000000000000000000000000600052603260045260246000fd5b6000610f5582610a90565b9150610f6083610a90565b9250827fffffffffffffffffffffffffffffffffffffffffffffffffffffffffffffffff03821115610f9557610f94610eb8565b5b828201905092915050565b6000610fab82610a90565b91507fffffffffffffffffffffffffffffffffffffffffffffffffffffffffffffffff8203610fdd57610fdc610eb8565b5b600182019050919050565b600081519050919050565b600082825260208201905092915050565b6000819050602082019050919050565b61101d81610af8565b82525050565b61102c81610a90565b82525050565b6040820160008201516110486000850182611014565b50602082015161105b6020850182611023565b50505050565b600061106d8383611032565b60408301905092915050565b6000602082019050919050565b600061109182610fe8565b61109b8185610ff3565b93506110a683611004565b8060005b838110156110d75781516110be8882611061565b97506110c983611079565b9250506001810190506110aa565b5085935050505092915050565b600060208201905081810360008301526110fe8184611086565b905092915050565b600082825260208201905092915050565b7f4f776e61626c653a206e6577206f776e657220697320746865207a65726f206160008201527f6464726573730000000000000000000000000000000000000000000000000000602082015250565b6000611173602683611106565b915061117e82611117565b604082019050919050565b600060208201905081810360008301526111a281611166565b9050919050565b7f4f776e61626c653a2063616c6c6572206973206e6f7420746865206f776e6572600082015250565b60006111df602083611106565b91506111ea826111a9565b602082019050919050565b6000602082019050818103600083015261120e816111d2565b9050919050565b60008151905061122481610c54565b92915050565b6000602082840312156112405761123f610ace565b5b600061124e84828501611215565b9150509291505056fea264697066735822122059ba8459b0667d3a5509e16363fb734d52faab26499160d0e4245c0be75c7d5e64736f6c634300080d0033",
  "linkReferences": {},
  "deployedLinkReferences": {}
}